{
	"Exchange.sol": {
		"DTCDevMarket": {
			"abi": [
				{
					"inputs": [
						{
							"internalType": "uint256",
							"name": "_amountEth",
							"type": "uint256"
						}
					],
					"name": "estimateERC20TokenToProvide",
					"outputs": [],
					"stateMutability": "nonpayable",
					"type": "function"
				},
				{
					"inputs": [
						{
							"internalType": "uint256",
							"name": "_amountERC20Token",
							"type": "uint256"
						}
					],
					"name": "estimateEthToProvide",
					"outputs": [],
					"stateMutability": "nonpayable",
					"type": "function"
				},
				{
					"inputs": [
						{
							"internalType": "uint256",
							"name": "_amountEth",
							"type": "uint256"
						}
					],
					"name": "estimateSwapForERC20Token",
					"outputs": [],
					"stateMutability": "nonpayable",
					"type": "function"
				},
				{
					"inputs": [
						{
							"internalType": "uint256",
							"name": "_amountERC20Token",
							"type": "uint256"
						}
					],
					"name": "estimateSwapForEth",
					"outputs": [],
					"stateMutability": "nonpayable",
					"type": "function"
				},
				{
					"inputs": [
						{
							"internalType": "uint256",
							"name": "_amountERC20Token",
							"type": "uint256"
						}
					],
					"name": "provideLiquidity",
					"outputs": [],
					"stateMutability": "nonpayable",
					"type": "function"
				},
				{
					"inputs": [],
					"name": "swapForERC20Token",
					"outputs": [],
					"stateMutability": "nonpayable",
					"type": "function"
				},
				{
					"inputs": [
						{
							"internalType": "uint256",
							"name": "_amountERC20Token",
							"type": "uint256"
						}
					],
					"name": "swapForEth",
					"outputs": [],
					"stateMutability": "nonpayable",
					"type": "function"
				},
				{
					"inputs": [
						{
							"internalType": "uint256",
							"name": "_liquidityPositionsToBurn",
							"type": "uint256"
						}
					],
					"name": "withdrawLiquidity",
					"outputs": [],
					"stateMutability": "nonpayable",
					"type": "function"
				}
			],
			"devdoc": {
				"details": "Set & change owner",
				"kind": "dev",
				"methods": {},
				"title": "Owner",
				"version": 1
			},
			"evm": {
				"assembly": "    /* \"Exchange.sol\":116:5352  contract DTCDevMarket {... */\n  mstore(0x40, 0x80)\n    /* \"Exchange.sol\":161:162  0 */\n  0x00\n    /* \"Exchange.sol\":145:162  int private k = 0 */\n  dup1\n  sstore\n    /* \"Exchange.sol\":116:5352  contract DTCDevMarket {... */\n  callvalue\n  dup1\n  iszero\n  tag_1\n  jumpi\n  0x00\n  dup1\n  revert\ntag_1:\n  pop\n  dataSize(sub_0)\n  dup1\n  dataOffset(sub_0)\n  0x00\n  codecopy\n  0x00\n  return\nstop\n\nsub_0: assembly {\n        /* \"Exchange.sol\":116:5352  contract DTCDevMarket {... */\n      mstore(0x40, 0x80)\n      callvalue\n      dup1\n      iszero\n      tag_1\n      jumpi\n      0x00\n      dup1\n      revert\n    tag_1:\n      pop\n      jumpi(tag_2, lt(calldatasize, 0x04))\n      shr(0xe0, calldataload(0x00))\n      dup1\n      0x903875f7\n      gt\n      tag_11\n      jumpi\n      dup1\n      0x903875f7\n      eq\n      tag_7\n      jumpi\n      dup1\n      0xc8ab8325\n      eq\n      tag_8\n      jumpi\n      dup1\n      0xeb521a4c\n      eq\n      tag_9\n      jumpi\n      dup1\n      0xed7bf868\n      eq\n      tag_10\n      jumpi\n      jump(tag_2)\n    tag_11:\n      dup1\n      0x0a861f2a\n      eq\n      tag_3\n      jumpi\n      dup1\n      0x240f3dea\n      eq\n      tag_4\n      jumpi\n      dup1\n      0x29cbab3e\n      eq\n      tag_5\n      jumpi\n      dup1\n      0x79ed3562\n      eq\n      tag_6\n      jumpi\n    tag_2:\n      0x00\n      dup1\n      revert\n        /* \"Exchange.sol\":2477:3407  function withdrawLiquidity(uint _liquidityPositionsToBurn) public {... */\n    tag_3:\n      tag_12\n      0x04\n      dup1\n      calldatasize\n      sub\n      dup2\n      add\n      swap1\n      tag_13\n      swap2\n      swap1\n      tag_14\n      jump\t// in\n    tag_13:\n      tag_15\n      jump\t// in\n    tag_12:\n      stop\n        /* \"Exchange.sol\":980:1604  function estimateEthToProvide(uint _amountERC20Token) public {... */\n    tag_4:\n      tag_16\n      0x04\n      dup1\n      calldatasize\n      sub\n      dup2\n      add\n      swap1\n      tag_17\n      swap2\n      swap1\n      tag_14\n      jump\t// in\n    tag_17:\n      tag_18\n      jump\t// in\n    tag_16:\n      stop\n        /* \"Exchange.sol\":4353:4800  function swapForERC20Token() public {... */\n    tag_5:\n      tag_19\n      tag_20\n      jump\t// in\n    tag_19:\n      stop\n        /* \"Exchange.sol\":4806:5350  function estimateSwapForERC20Token(uint _amountEth) public {... */\n    tag_6:\n      tag_21\n      0x04\n      dup1\n      calldatasize\n      sub\n      dup2\n      add\n      swap1\n      tag_22\n      swap2\n      swap1\n      tag_14\n      jump\t// in\n    tag_22:\n      tag_23\n      jump\t// in\n    tag_21:\n      stop\n        /* \"Exchange.sol\":3871:4347  function estimateSwapForEth(uint _amountERC20Token) public {... */\n    tag_7:\n      tag_24\n      0x04\n      dup1\n      calldatasize\n      sub\n      dup2\n      add\n      swap1\n      tag_25\n      swap2\n      swap1\n      tag_14\n      jump\t// in\n    tag_25:\n      tag_26\n      jump\t// in\n    tag_24:\n      stop\n        /* \"Exchange.sol\":3413:3865  function swapForEth(uint _amountERC20Token) public {... */\n    tag_8:\n      tag_27\n      0x04\n      dup1\n      calldatasize\n      sub\n      dup2\n      add\n      swap1\n      tag_28\n      swap2\n      swap1\n      tag_14\n      jump\t// in\n    tag_28:\n      tag_29\n      jump\t// in\n    tag_27:\n      stop\n        /* \"Exchange.sol\":169:974  function provideLiquidity(uint _amountERC20Token) public {... */\n    tag_9:\n      tag_30\n      0x04\n      dup1\n      calldatasize\n      sub\n      dup2\n      add\n      swap1\n      tag_31\n      swap2\n      swap1\n      tag_14\n      jump\t// in\n    tag_31:\n      tag_32\n      jump\t// in\n    tag_30:\n      stop\n        /* \"Exchange.sol\":1610:2471  function estimateERC20TokenToProvide(uint _amountEth) public {... */\n    tag_10:\n      tag_33\n      0x04\n      dup1\n      calldatasize\n      sub\n      dup2\n      add\n      swap1\n      tag_34\n      swap2\n      swap1\n      tag_14\n      jump\t// in\n    tag_34:\n      tag_35\n      jump\t// in\n    tag_33:\n      stop\n        /* \"Exchange.sol\":2477:3407  function withdrawLiquidity(uint _liquidityPositionsToBurn) public {... */\n    tag_15:\n      pop\n      jump\t// out\n        /* \"Exchange.sol\":980:1604  function estimateEthToProvide(uint _amountERC20Token) public {... */\n    tag_18:\n      pop\n      jump\t// out\n        /* \"Exchange.sol\":4353:4800  function swapForERC20Token() public {... */\n    tag_20:\n      jump\t// out\n        /* \"Exchange.sol\":4806:5350  function estimateSwapForERC20Token(uint _amountEth) public {... */\n    tag_23:\n      pop\n      jump\t// out\n        /* \"Exchange.sol\":3871:4347  function estimateSwapForEth(uint _amountERC20Token) public {... */\n    tag_26:\n      pop\n      jump\t// out\n        /* \"Exchange.sol\":3413:3865  function swapForEth(uint _amountERC20Token) public {... */\n    tag_29:\n      pop\n      jump\t// out\n        /* \"Exchange.sol\":169:974  function provideLiquidity(uint _amountERC20Token) public {... */\n    tag_32:\n      pop\n      jump\t// out\n        /* \"Exchange.sol\":1610:2471  function estimateERC20TokenToProvide(uint _amountEth) public {... */\n    tag_35:\n      pop\n      jump\t// out\n        /* \"#utility.yul\":7:146   */\n    tag_45:\n        /* \"#utility.yul\":53:58   */\n      0x00\n        /* \"#utility.yul\":91:97   */\n      dup2\n        /* \"#utility.yul\":78:98   */\n      calldataload\n        /* \"#utility.yul\":69:98   */\n      swap1\n      pop\n        /* \"#utility.yul\":107:140   */\n      tag_47\n        /* \"#utility.yul\":134:139   */\n      dup2\n        /* \"#utility.yul\":107:140   */\n      tag_48\n      jump\t// in\n    tag_47:\n        /* \"#utility.yul\":7:146   */\n      swap3\n      swap2\n      pop\n      pop\n      jump\t// out\n        /* \"#utility.yul\":152:481   */\n    tag_14:\n        /* \"#utility.yul\":211:217   */\n      0x00\n        /* \"#utility.yul\":260:262   */\n      0x20\n        /* \"#utility.yul\":248:257   */\n      dup3\n        /* \"#utility.yul\":239:246   */\n      dup5\n        /* \"#utility.yul\":235:258   */\n      sub\n        /* \"#utility.yul\":231:263   */\n      slt\n        /* \"#utility.yul\":228:347   */\n      iszero\n      tag_50\n      jumpi\n        /* \"#utility.yul\":266:345   */\n      tag_51\n      tag_52\n      jump\t// in\n    tag_51:\n        /* \"#utility.yul\":228:347   */\n    tag_50:\n        /* \"#utility.yul\":386:387   */\n      0x00\n        /* \"#utility.yul\":411:464   */\n      tag_53\n        /* \"#utility.yul\":456:463   */\n      dup5\n        /* \"#utility.yul\":447:453   */\n      dup3\n        /* \"#utility.yul\":436:445   */\n      dup6\n        /* \"#utility.yul\":432:454   */\n      add\n        /* \"#utility.yul\":411:464   */\n      tag_45\n      jump\t// in\n    tag_53:\n        /* \"#utility.yul\":401:464   */\n      swap2\n      pop\n        /* \"#utility.yul\":357:474   */\n      pop\n        /* \"#utility.yul\":152:481   */\n      swap3\n      swap2\n      pop\n      pop\n      jump\t// out\n        /* \"#utility.yul\":568:645   */\n    tag_56:\n        /* \"#utility.yul\":605:612   */\n      0x00\n        /* \"#utility.yul\":634:639   */\n      dup2\n        /* \"#utility.yul\":623:639   */\n      swap1\n      pop\n        /* \"#utility.yul\":568:645   */\n      swap2\n      swap1\n      pop\n      jump\t// out\n        /* \"#utility.yul\":774:891   */\n    tag_52:\n        /* \"#utility.yul\":883:884   */\n      0x00\n        /* \"#utility.yul\":880:881   */\n      dup1\n        /* \"#utility.yul\":873:885   */\n      revert\n        /* \"#utility.yul\":897:1019   */\n    tag_48:\n        /* \"#utility.yul\":970:994   */\n      tag_62\n        /* \"#utility.yul\":988:993   */\n      dup2\n        /* \"#utility.yul\":970:994   */\n      tag_56\n      jump\t// in\n    tag_62:\n        /* \"#utility.yul\":963:968   */\n      dup2\n        /* \"#utility.yul\":960:995   */\n      eq\n        /* \"#utility.yul\":950:1013   */\n      tag_63\n      jumpi\n        /* \"#utility.yul\":1009:1010   */\n      0x00\n        /* \"#utility.yul\":1006:1007   */\n      dup1\n        /* \"#utility.yul\":999:1011   */\n      revert\n        /* \"#utility.yul\":950:1013   */\n    tag_63:\n        /* \"#utility.yul\":897:1019   */\n      pop\n      jump\t// out\n\n    auxdata: 0xa2646970667358221220cb0c2f3b1d21b40ea9ad857ce88f7ca1518b0dae6b531775e3700be28d43022064736f6c63430008070033\n}\n",
				"bytecode": {
					"linkReferences": {},
					"object": "60806040526000805534801561001457600080fd5b50610210806100246000396000f3fe608060405234801561001057600080fd5b50600436106100885760003560e01c8063903875f71161005b578063903875f7146100eb578063c8ab832514610107578063eb521a4c14610123578063ed7bf8681461013f57610088565b80630a861f2a1461008d578063240f3dea146100a957806329cbab3e146100c557806379ed3562146100cf575b600080fd5b6100a760048036038101906100a29190610187565b61015b565b005b6100c360048036038101906100be9190610187565b61015e565b005b6100cd610161565b005b6100e960048036038101906100e49190610187565b610163565b005b61010560048036038101906101009190610187565b610166565b005b610121600480360381019061011c9190610187565b610169565b005b61013d60048036038101906101389190610187565b61016c565b005b61015960048036038101906101549190610187565b61016f565b005b50565b50565b565b50565b50565b50565b50565b50565b600081359050610181816101c3565b92915050565b60006020828403121561019d5761019c6101be565b5b60006101ab84828501610172565b91505092915050565b6000819050919050565b600080fd5b6101cc816101b4565b81146101d757600080fd5b5056fea2646970667358221220cb0c2f3b1d21b40ea9ad857ce88f7ca1518b0dae6b531775e3700be28d43022064736f6c63430008070033",
					"opcodes": "PUSH1 0x80 PUSH1 0x40 MSTORE PUSH1 0x0 DUP1 SSTORE CALLVALUE DUP1 ISZERO PUSH2 0x14 JUMPI PUSH1 0x0 DUP1 REVERT JUMPDEST POP PUSH2 0x210 DUP1 PUSH2 0x24 PUSH1 0x0 CODECOPY PUSH1 0x0 RETURN INVALID PUSH1 0x80 PUSH1 0x40 MSTORE CALLVALUE DUP1 ISZERO PUSH2 0x10 JUMPI PUSH1 0x0 DUP1 REVERT JUMPDEST POP PUSH1 0x4 CALLDATASIZE LT PUSH2 0x88 JUMPI PUSH1 0x0 CALLDATALOAD PUSH1 0xE0 SHR DUP1 PUSH4 0x903875F7 GT PUSH2 0x5B JUMPI DUP1 PUSH4 0x903875F7 EQ PUSH2 0xEB JUMPI DUP1 PUSH4 0xC8AB8325 EQ PUSH2 0x107 JUMPI DUP1 PUSH4 0xEB521A4C EQ PUSH2 0x123 JUMPI DUP1 PUSH4 0xED7BF868 EQ PUSH2 0x13F JUMPI PUSH2 0x88 JUMP JUMPDEST DUP1 PUSH4 0xA861F2A EQ PUSH2 0x8D JUMPI DUP1 PUSH4 0x240F3DEA EQ PUSH2 0xA9 JUMPI DUP1 PUSH4 0x29CBAB3E EQ PUSH2 0xC5 JUMPI DUP1 PUSH4 0x79ED3562 EQ PUSH2 0xCF JUMPI JUMPDEST PUSH1 0x0 DUP1 REVERT JUMPDEST PUSH2 0xA7 PUSH1 0x4 DUP1 CALLDATASIZE SUB DUP2 ADD SWAP1 PUSH2 0xA2 SWAP2 SWAP1 PUSH2 0x187 JUMP JUMPDEST PUSH2 0x15B JUMP JUMPDEST STOP JUMPDEST PUSH2 0xC3 PUSH1 0x4 DUP1 CALLDATASIZE SUB DUP2 ADD SWAP1 PUSH2 0xBE SWAP2 SWAP1 PUSH2 0x187 JUMP JUMPDEST PUSH2 0x15E JUMP JUMPDEST STOP JUMPDEST PUSH2 0xCD PUSH2 0x161 JUMP JUMPDEST STOP JUMPDEST PUSH2 0xE9 PUSH1 0x4 DUP1 CALLDATASIZE SUB DUP2 ADD SWAP1 PUSH2 0xE4 SWAP2 SWAP1 PUSH2 0x187 JUMP JUMPDEST PUSH2 0x163 JUMP JUMPDEST STOP JUMPDEST PUSH2 0x105 PUSH1 0x4 DUP1 CALLDATASIZE SUB DUP2 ADD SWAP1 PUSH2 0x100 SWAP2 SWAP1 PUSH2 0x187 JUMP JUMPDEST PUSH2 0x166 JUMP JUMPDEST STOP JUMPDEST PUSH2 0x121 PUSH1 0x4 DUP1 CALLDATASIZE SUB DUP2 ADD SWAP1 PUSH2 0x11C SWAP2 SWAP1 PUSH2 0x187 JUMP JUMPDEST PUSH2 0x169 JUMP JUMPDEST STOP JUMPDEST PUSH2 0x13D PUSH1 0x4 DUP1 CALLDATASIZE SUB DUP2 ADD SWAP1 PUSH2 0x138 SWAP2 SWAP1 PUSH2 0x187 JUMP JUMPDEST PUSH2 0x16C JUMP JUMPDEST STOP JUMPDEST PUSH2 0x159 PUSH1 0x4 DUP1 CALLDATASIZE SUB DUP2 ADD SWAP1 PUSH2 0x154 SWAP2 SWAP1 PUSH2 0x187 JUMP JUMPDEST PUSH2 0x16F JUMP JUMPDEST STOP JUMPDEST POP JUMP JUMPDEST POP JUMP JUMPDEST JUMP JUMPDEST POP JUMP JUMPDEST POP JUMP JUMPDEST POP JUMP JUMPDEST POP JUMP JUMPDEST POP JUMP JUMPDEST PUSH1 0x0 DUP2 CALLDATALOAD SWAP1 POP PUSH2 0x181 DUP2 PUSH2 0x1C3 JUMP JUMPDEST SWAP3 SWAP2 POP POP JUMP JUMPDEST PUSH1 0x0 PUSH1 0x20 DUP3 DUP5 SUB SLT ISZERO PUSH2 0x19D JUMPI PUSH2 0x19C PUSH2 0x1BE JUMP JUMPDEST JUMPDEST PUSH1 0x0 PUSH2 0x1AB DUP5 DUP3 DUP6 ADD PUSH2 0x172 JUMP JUMPDEST SWAP2 POP POP SWAP3 SWAP2 POP POP JUMP JUMPDEST PUSH1 0x0 DUP2 SWAP1 POP SWAP2 SWAP1 POP JUMP JUMPDEST PUSH1 0x0 DUP1 REVERT JUMPDEST PUSH2 0x1CC DUP2 PUSH2 0x1B4 JUMP JUMPDEST DUP2 EQ PUSH2 0x1D7 JUMPI PUSH1 0x0 DUP1 REVERT JUMPDEST POP JUMP INVALID LOG2 PUSH5 0x6970667358 0x22 SLT KECCAK256 0xCB 0xC 0x2F EXTCODESIZE SAR 0x21 0xB4 0xE 0xA9 0xAD DUP6 PUSH29 0xE88F7CA1518B0DAE6B531775E3700BE28D43022064736F6C6343000807 STOP CALLER "
				},
				"gasEstimates": {
					"creation": {
						"codeDepositCost": "105600",
						"executionCost": "5159",
						"totalCost": "110759"
					},
					"external": {
						"estimateERC20TokenToProvide(uint256)": "472",
						"estimateEthToProvide(uint256)": "429",
						"estimateSwapForERC20Token(uint256)": "473",
						"estimateSwapForEth(uint256)": "406",
						"provideLiquidity(uint256)": "450",
						"swapForERC20Token()": "189",
						"swapForEth(uint256)": "428",
						"withdrawLiquidity(uint256)": "407"
					}
				},
				"methodIdentifiers": {
					"estimateERC20TokenToProvide(uint256)": "ed7bf868",
					"estimateEthToProvide(uint256)": "240f3dea",
					"estimateSwapForERC20Token(uint256)": "79ed3562",
					"estimateSwapForEth(uint256)": "903875f7",
					"provideLiquidity(uint256)": "eb521a4c",
					"swapForERC20Token()": "29cbab3e",
					"swapForEth(uint256)": "c8ab8325",
					"withdrawLiquidity(uint256)": "0a861f2a"
				}
			},
			"storageLayout": {
				"storage": [
					{
						"astId": 5,
						"contract": "Exchange.sol:DTCDevMarket",
						"label": "k",
						"offset": 0,
						"slot": "0",
						"type": "t_int256"
					}
				],
				"types": {
					"t_int256": {
						"encoding": "inplace",
						"label": "int256",
						"numberOfBytes": "32"
					}
				}
			},
			"userdoc": {
				"kind": "user",
				"methods": {},
				"version": 1
			}
		}
	}
}