{
	"data": {
		"bytecode": {
			"linkReferences": {},
			"object": "608060405260008055600060015534801561001957600080fd5b50610210806100296000396000f3fe608060405234801561001057600080fd5b50600436106100885760003560e01c8063903875f71161005b578063903875f7146100eb578063c8ab832514610107578063eb521a4c14610123578063ed7bf8681461013f57610088565b80630a861f2a1461008d578063240f3dea146100a957806329cbab3e146100c557806379ed3562146100cf575b600080fd5b6100a760048036038101906100a29190610187565b61015b565b005b6100c360048036038101906100be9190610187565b61015e565b005b6100cd610161565b005b6100e960048036038101906100e49190610187565b610163565b005b61010560048036038101906101009190610187565b610166565b005b610121600480360381019061011c9190610187565b610169565b005b61013d60048036038101906101389190610187565b61016c565b005b61015960048036038101906101549190610187565b61016f565b005b50565b50565b565b50565b50565b50565b50565b50565b600081359050610181816101c3565b92915050565b60006020828403121561019d5761019c6101be565b5b60006101ab84828501610172565b91505092915050565b6000819050919050565b600080fd5b6101cc816101b4565b81146101d757600080fd5b5056fea264697066735822122005651d34a1cf7f8e08ac4a2c9581e859cc10f883e376f694e83c2c872438f8d064736f6c63430008070033",
			"opcodes": "PUSH1 0x80 PUSH1 0x40 MSTORE PUSH1 0x0 DUP1 SSTORE PUSH1 0x0 PUSH1 0x1 SSTORE CALLVALUE DUP1 ISZERO PUSH2 0x19 JUMPI PUSH1 0x0 DUP1 REVERT JUMPDEST POP PUSH2 0x210 DUP1 PUSH2 0x29 PUSH1 0x0 CODECOPY PUSH1 0x0 RETURN INVALID PUSH1 0x80 PUSH1 0x40 MSTORE CALLVALUE DUP1 ISZERO PUSH2 0x10 JUMPI PUSH1 0x0 DUP1 REVERT JUMPDEST POP PUSH1 0x4 CALLDATASIZE LT PUSH2 0x88 JUMPI PUSH1 0x0 CALLDATALOAD PUSH1 0xE0 SHR DUP1 PUSH4 0x903875F7 GT PUSH2 0x5B JUMPI DUP1 PUSH4 0x903875F7 EQ PUSH2 0xEB JUMPI DUP1 PUSH4 0xC8AB8325 EQ PUSH2 0x107 JUMPI DUP1 PUSH4 0xEB521A4C EQ PUSH2 0x123 JUMPI DUP1 PUSH4 0xED7BF868 EQ PUSH2 0x13F JUMPI PUSH2 0x88 JUMP JUMPDEST DUP1 PUSH4 0xA861F2A EQ PUSH2 0x8D JUMPI DUP1 PUSH4 0x240F3DEA EQ PUSH2 0xA9 JUMPI DUP1 PUSH4 0x29CBAB3E EQ PUSH2 0xC5 JUMPI DUP1 PUSH4 0x79ED3562 EQ PUSH2 0xCF JUMPI JUMPDEST PUSH1 0x0 DUP1 REVERT JUMPDEST PUSH2 0xA7 PUSH1 0x4 DUP1 CALLDATASIZE SUB DUP2 ADD SWAP1 PUSH2 0xA2 SWAP2 SWAP1 PUSH2 0x187 JUMP JUMPDEST PUSH2 0x15B JUMP JUMPDEST STOP JUMPDEST PUSH2 0xC3 PUSH1 0x4 DUP1 CALLDATASIZE SUB DUP2 ADD SWAP1 PUSH2 0xBE SWAP2 SWAP1 PUSH2 0x187 JUMP JUMPDEST PUSH2 0x15E JUMP JUMPDEST STOP JUMPDEST PUSH2 0xCD PUSH2 0x161 JUMP JUMPDEST STOP JUMPDEST PUSH2 0xE9 PUSH1 0x4 DUP1 CALLDATASIZE SUB DUP2 ADD SWAP1 PUSH2 0xE4 SWAP2 SWAP1 PUSH2 0x187 JUMP JUMPDEST PUSH2 0x163 JUMP JUMPDEST STOP JUMPDEST PUSH2 0x105 PUSH1 0x4 DUP1 CALLDATASIZE SUB DUP2 ADD SWAP1 PUSH2 0x100 SWAP2 SWAP1 PUSH2 0x187 JUMP JUMPDEST PUSH2 0x166 JUMP JUMPDEST STOP JUMPDEST PUSH2 0x121 PUSH1 0x4 DUP1 CALLDATASIZE SUB DUP2 ADD SWAP1 PUSH2 0x11C SWAP2 SWAP1 PUSH2 0x187 JUMP JUMPDEST PUSH2 0x169 JUMP JUMPDEST STOP JUMPDEST PUSH2 0x13D PUSH1 0x4 DUP1 CALLDATASIZE SUB DUP2 ADD SWAP1 PUSH2 0x138 SWAP2 SWAP1 PUSH2 0x187 JUMP JUMPDEST PUSH2 0x16C JUMP JUMPDEST STOP JUMPDEST PUSH2 0x159 PUSH1 0x4 DUP1 CALLDATASIZE SUB DUP2 ADD SWAP1 PUSH2 0x154 SWAP2 SWAP1 PUSH2 0x187 JUMP JUMPDEST PUSH2 0x16F JUMP JUMPDEST STOP JUMPDEST POP JUMP JUMPDEST POP JUMP JUMPDEST JUMP JUMPDEST POP JUMP JUMPDEST POP JUMP JUMPDEST POP JUMP JUMPDEST POP JUMP JUMPDEST POP JUMP JUMPDEST PUSH1 0x0 DUP2 CALLDATALOAD SWAP1 POP PUSH2 0x181 DUP2 PUSH2 0x1C3 JUMP JUMPDEST SWAP3 SWAP2 POP POP JUMP JUMPDEST PUSH1 0x0 PUSH1 0x20 DUP3 DUP5 SUB SLT ISZERO PUSH2 0x19D JUMPI PUSH2 0x19C PUSH2 0x1BE JUMP JUMPDEST JUMPDEST PUSH1 0x0 PUSH2 0x1AB DUP5 DUP3 DUP6 ADD PUSH2 0x172 JUMP JUMPDEST SWAP2 POP POP SWAP3 SWAP2 POP POP JUMP JUMPDEST PUSH1 0x0 DUP2 SWAP1 POP SWAP2 SWAP1 POP JUMP JUMPDEST PUSH1 0x0 DUP1 REVERT JUMPDEST PUSH2 0x1CC DUP2 PUSH2 0x1B4 JUMP JUMPDEST DUP2 EQ PUSH2 0x1D7 JUMPI PUSH1 0x0 DUP1 REVERT JUMPDEST POP JUMP INVALID LOG2 PUSH5 0x6970667358 0x22 SLT KECCAK256 SDIV PUSH6 0x1D34A1CF7F8E ADDMOD 0xAC 0x4A 0x2C SWAP6 DUP2 0xE8 MSIZE 0xCC LT 0xF8 DUP4 0xE3 PUSH23 0xF694E83C2C872438F8D064736F6C634300080700330000 "
		},
		"gasEstimates": {
			"creation": {
				"codeDepositCost": "105600",
				"executionCost": "10165",
				"totalCost": "115765"
			},
			"external": {
				"estimateERC20TokenToProvide(uint256)": "472",
				"estimateEthToProvide(uint256)": "429",
				"estimateSwapForERC20Token(uint256)": "473",
				"estimateSwapForEth(uint256)": "406",
				"provideLiquidity(uint256)": "450",
				"swapForERC20Token()": "189",
				"swapForEth(uint256)": "428",
				"withdrawLiquidity(uint256)": "407"
			}
		},
		"methodIdentifiers": {
			"estimateERC20TokenToProvide(uint256)": "ed7bf868",
			"estimateEthToProvide(uint256)": "240f3dea",
			"estimateSwapForERC20Token(uint256)": "79ed3562",
			"estimateSwapForEth(uint256)": "903875f7",
			"provideLiquidity(uint256)": "eb521a4c",
			"swapForERC20Token()": "29cbab3e",
			"swapForEth(uint256)": "c8ab8325",
			"withdrawLiquidity(uint256)": "0a861f2a"
		}
	},
	"abi": [
		{
			"inputs": [
				{
					"internalType": "uint256",
					"name": "_amountEth",
					"type": "uint256"
				}
			],
			"name": "estimateERC20TokenToProvide",
			"outputs": [],
			"stateMutability": "nonpayable",
			"type": "function"
		},
		{
			"inputs": [
				{
					"internalType": "uint256",
					"name": "_amountERC20Token",
					"type": "uint256"
				}
			],
			"name": "estimateEthToProvide",
			"outputs": [],
			"stateMutability": "nonpayable",
			"type": "function"
		},
		{
			"inputs": [
				{
					"internalType": "uint256",
					"name": "_amountEth",
					"type": "uint256"
				}
			],
			"name": "estimateSwapForERC20Token",
			"outputs": [],
			"stateMutability": "nonpayable",
			"type": "function"
		},
		{
			"inputs": [
				{
					"internalType": "uint256",
					"name": "_amountERC20Token",
					"type": "uint256"
				}
			],
			"name": "estimateSwapForEth",
			"outputs": [],
			"stateMutability": "nonpayable",
			"type": "function"
		},
		{
			"inputs": [
				{
					"internalType": "uint256",
					"name": "_amountERC20Token",
					"type": "uint256"
				}
			],
			"name": "provideLiquidity",
			"outputs": [],
			"stateMutability": "nonpayable",
			"type": "function"
		},
		{
			"inputs": [],
			"name": "swapForERC20Token",
			"outputs": [],
			"stateMutability": "nonpayable",
			"type": "function"
		},
		{
			"inputs": [
				{
					"internalType": "uint256",
					"name": "_amountERC20Token",
					"type": "uint256"
				}
			],
			"name": "swapForEth",
			"outputs": [],
			"stateMutability": "nonpayable",
			"type": "function"
		},
		{
			"inputs": [
				{
					"internalType": "uint256",
					"name": "_liquidityPositionsToBurn",
					"type": "uint256"
				}
			],
			"name": "withdrawLiquidity",
			"outputs": [],
			"stateMutability": "nonpayable",
			"type": "function"
		}
	]
}